:020000040800F2
:1000000000000220B53A0008C10D0008C50D000827
:10001000C90D0008CD0D0008D10D0008000000003A
:10002000000000000000000000000000D50D0008E6
:10003000D90D000800000000DD0D0008E10D0008EA
:10004000053B0008053B0008053B0008053B000890
:10005000053B0008053B0008053B0008053B000880
:10006000053B0008053B0008053B0008053B000870
:10007000053B0008053B0008053B0008053B000860
:10008000053B0008053B0008053B0008053B000850
:10009000053B0008053B0008053B0008053B000840
:1000A000053B0008053B0008053B0008053B000830
:1000B000053B0008053B0008053B0008053B000820
:1000C000053B0008053B0008053B0008053B000810
:1000D000053B0008053B0008053B0008053B000800
:1000E000053B0008053B0008053B0008053B0008F0
:1000F000053B0008053B0008053B0008053B0008E0
:10010000053B0008053B0008053B0008053B0008CF
:10011000053B0008053B0008053B0008053B0008BF
:10012000053B0008053B0008053B0008053B0008AF
:10013000053B0008053B0008053B0008053B00089F
:10014000053B0008053B0008053B0008ED0D0008D5
:10015000053B0008053B0008053B0008053B00087F
:10016000053B0008053B0008053B0008053B00086F
:10017000053B0008053B0008053B000800000000A7
:08018000053B0008053B0008E7
:10018800044B05481B1A062B02D9044B03B1184728
:10019800704700BFC7010020C40100200000000014
:1001A80005490648091A891001EBD171491002D096
:1001B800034B03B118477047C4010020C401002055
:1001C8000000000010B5064C237843B9FFF7D8FFAC
:1001D800044B13B10448AFF300800123237010BD12
:1001E800C401002000000000E43C000808B5084BEA
:1001F8001BB108480849AFF300800848036813B9E1
:10020800BDE80840CCE7064B002BF9D09847F7E744
:1002180000000000E43C0008C8010020C4010020E0
:100228000000000053B94AB9002908BF00281CBFC4
:100238004FF0FF314FF0FF3000F03CB882B0EC4691
:100248002DE9005000F01EF8DDF804E002B00CBC07
:10025800704700BF2DE9F041069C154606460F463B
:10026800984600F029F805FB01F300FB0838A5FBC8
:100278000023B21A434467EB0303C4E90023BDE833
:10028800F08100BF2DE9F041069C904606460F46D6
:100298001D4600F05FF900FB05F5A0FB082308FBED
:1002A8000155B21A2B4467EB0303C4E90023BDE8E8
:1002B800F08100BF704700BF00292DE9F043C0F26C
:1002C800A6800026002BC0F29C80884694469E4655
:1002D800154604460F46002B3DD18A4259D9B2FA39
:1002E80082F33BB1C3F120029F4020FA02F29D4005
:1002F80017439C40290C220CB7FBF1FEA8B201FB66
:100308001E7742EA074700FB0EF3BB420AD97F1962
:100318000EF1FF3280F00581BB4240F20281AEF15E
:10032800020E2F44FF1AA4B2B7FBF1F301FB1377B7
:1003380044EA074700FB03F0B84208D97F1903F1E4
:10034800FF3280F0F080B84240F2ED80023B43EA91
:100358000E43002203E08B420FD900221346341CBF
:1003680018BF012460424FF0000565EB4501584075
:10037800514000196941BDE8F083B3FA83F2002ABD
:1003880040F086808B4202D3844500F2DB80012353
:10039800E5E712B90123B3FBF2F5B5FA85F00028B9
:1003A8003BD1781B4FEA154E1FFA85FC0122B0FBA2
:1003B800FEF8210C0EFB180741EA07470CFB08F36F
:1003C800BB4207D97F1908F1FF3102D2BB4200F2C4
:1003D800BD808846FF1AA4B2B7FBFEF30EFB137765
:1003E80044EA07470CFB03FCBC4507D97F1903F116
:1003F800FF3102D2BC4500F2A7800B4643EA08430E
:10040800ADE752426FEA060663EB43035DE74042FD
:1004180061EB41014FF0FF3654E7C0F1200224FAA6
:1004280002F107FA00F385404FEA154ED740194309
:10043800B7FBFEF20B0C0EFB12771FFA85FC43EAA2
:1004480007430CFB02F79F4204FA00F407D95B1933
:1004580002F1FF3074D29F4272D9023A2B44DF1B5B
:1004680089B2B7FBFEF80EFB187341EA03430CFB95
:1004780008F79F4208D95B1908F1FF315CD29F4207
:100488005AD9A8F102082B44D81B48EA02428EE741
:10049800C2F120032CFA03F10EFA02FE20FA03F748
:1004A80041EA0E0E08FA02F028FA03F14FEA1E4557
:1004B8003843B1FBF5F8030C05FB18111FFA8EF74A
:1004C80043EA014107FB08F38B420CFA02FC09D905
:1004D80011EB0E0108F1FF3930D28B422ED9A8F169
:1004E80002087144C91A80B2B1FBF5F305FB131178
:1004F80040EA014107FB03F78F4208D911EB0E01CF
:1005080003F1FF3016D28F4214D9023B714443EAFB
:100518000843C91BA3FB0C89494509D305D0002210
:100528001DE79646FEE6134611E794404445F6D289
:10053800013BF4E70346EAE78846A5E7C846D1E762
:1005480002468CE713460AE7023B57E7A8F1020880
:100558002F443FE72DE9F041002B44D18A4215464C
:1005680004464FD9B2FA82F70E464FB1C7F12003BD
:10057800B94020FA03F602FA07F50E4300FA07F429
:100588004FEA154E230CB6FBFEF0AFB20EFB10611E
:1005980043EA014307FB00F1994209D95B1900F1CD
:1005A800FF3280F0EC80994240F2E98002382B4417
:1005B8005A1AA4B2B2FBFEF30EFB132244EA02421B
:1005C80007FB03F7974208D9521903F1FF3180F06E
:1005D800D880974240F2D580023B43EA004000268B
:1005E8003146BDE8F0818B4247D8B3FA83F6002E36
:1005F80048D18B4202D3824200F2CD80012031469D
:10060800BDE8F08112B90125B5FBF2F5B5FA85F818
:10061800B8F1000F77D14A1B4FEA154EAFB2012649
:10062800B2FBFEF0230C0EFB102143EA014107FB4D
:1006380000F38B4207D9491900F1FF3202D28B42ED
:1006480000F2BA801046C91AA4B2B1FBFEF30EFB41
:10065800131144EA014407FB03F7A74208D96419B8
:1006680003F1FF3280F08F80A74240F28C80023B7A
:1006780043EA00403146BDE8F08100263046314665
:10068800BDE8F081C6F1200422FA04F5B3402B43FB
:1006980020FA04FC01FA06F721FA04F54FEA134E92
:1006A8004CEA0707B5FBFEF8390C0EFB18551FFA84
:1006B80083FC41EA05450CFB08F1A94202FA06F25F
:1006C80004D9ED1808F1FF3467D3A0466D1ABFB2FC
:1006D800B5FBFEF40EFB145547EA05410CFB04FC80
:1006E8008C4504D9C91804F1FF355CD32C4644EA7B
:1006F8000844CCEB0101A4FB0223994248D344D01F
:10070800204600266CE7C8F1200401FA08F305FA30
:1007180008F520FA04F7E1404FEA154E1F43B1FBF4
:10072800FEF63A0C0EFB16111FFA85FC42EA01434D
:100738000CFB06F29A4200FA08F407D95B1906F195
:10074800FF3137D29A4235D9023E2B449B1ABFB2A9
:10075800B3FBFEF00EFB103347EA03430CFB00F13A
:10076800994207D95B1900F1FF3221D299421FD96A
:1007780002382B445A1A40EA0646674650E71046A4
:1007880016E70B4629E7134672E7B0409042B7D206
:10079800601E002624E7304622E7A94295D9A8F131
:1007A80002081D4492E78C45A0D9023C19449EE7F3
:1007B8001046DFE70E46C9E70238294443E700BF81
:1007C800FEE700BF00B595B000210191294B1A6CD6
:1007D80042F080521A641B6C03F080530193019B12
:1007E8000291254B1A6842F480421A601B6803F490
:1007F80080430293029B012308934FF480330993AB
:1008080002230E934FF480030F9308231093902331
:100818001193042312930323139308A801F000FFF4
:1008280018B116489C21FFF7CBFF0F23039302232F
:100838000493002305930693079303A8012102F06C
:1008480035F918B10D48AA21FFF7BAFF02F0DEF911
:100858000B4BA3FB0030800902F036FB042002F0AA
:1008680049FB4FF0FF3000210A4602F0EFFA15B0BD
:100878005DF804FB0038024000700040FC3C0008B2
:10088800D34D621008B502F071FBFFF79BFF00F033
:1008980005F800F029F800F071F8FEE784B00022AE
:1008A8000192104B196B41F080011963196B01F02B
:1008B8008001019101990292196B41F001011963BC
:1008C800196B01F001010291029903921A6B42F02F
:1008D80002021A631B6B03F002030393039B04B029
:1008E800704700BF0038024008B50B480B4B036047
:1008F8004FF4E133436000238360C36003610C223B
:1009080042618361C36101F059FE18B104484C216A
:10091800FFF756FF08BD00BFF0010020001001409E
:10092800083D00080268124B9A421FD100B587B0F3
:10093800002300930F4B5A6C42F010025A645B6C10
:1009480003F010030093009B4FF4C063019302234C
:100958000293012303930323049307230593064873
:1009680001A902F079F907B05DF804FB704700BFF0
:1009780000100140003802400000024010B5094C48
:1009880020460949002202F057FB2046074902F099
:100998006BFB2046064903F059F8204602F06CFB31
:1009A80010BD00BF3002002000000020940000208D
:1009B800340000200368B3F1A04F29D110B586B0E8
:1009C8004FF4C0530193022302930024039403239A
:1009D80004930A2305930F4801A902F03DF90E4B31
:1009E8005A6B42F080025A6300945A6C42F4804277
:1009F8005A645B6C03F480430093009B43202146B8
:100A0800224602F023FA432002F052FA06B010BD43
:100A1800704700BF000002400038024008B5014698
:100A2800D0F8EC0301F56F7102F042FB08BD00BF7E
:100A380008B5C1EBC1039B000344D0F8EC03D3F81D
:100A4800042202F063FB08BD08B5C1EBC1039B009B
:100A58000344D0F8EC035A6C02F088FB08BD00BFD1
:100A680008B5D0F8EC0302F007FC08BD10B5044641
:100A7800C3680BB9002100E00121D4F8EC0302F0AF
:100A8800E7FBD4F8EC0302F0C3FB10BD10B5044635
:100A9800D0F8EC0302F0E0FB2268D2F8003E43F005
:100AA8000103C2F8003E236A23B1034A136943F0E5
:100AB8000603136110BD00BF00ED00E008B5D0F8D3
:100AC800EC0302F0D3FB08BD08B5D0F8EC0302F044
:100AD800E1FB08BD08B5D0F8EC0302F0D9FB08BD6E
:100AE80008B5D0F8EC0302F0D7FB08BD08B5D0F87C
:100AF800EC0302F0D3FB08BD03787BBB10B50346BB
:100B08001748C0F8EC33C3F820024FF0A043036045
:100B1800042343600222C2600023036143618261AF
:100B2800C36103624362C362036300F003FA20B146
:100B38000C484FF4A571FFF743FE094C204680216D
:100B480000F08EFE20460021402200F065FE20467F
:100B58000121802200F060FE002010BD00207047B7
:100B680054040020143D000808B5D0F8200200F015
:100B780053FA10B1022802D003E0002008BD01207A
:100B880008BD022008BD00BF10B51446D0F82002E9
:100B98001A46234600F024FD10B1022802D003E0D3
:100BA800002010BD012010BD022010BD08B5D0F8EE
:100BB800200200F049FD10B1022802D003E0002015
:100BC80008BD012008BD022008BD00BF08B5D0F847
:100BD800200200F0C3FD10B1022802D003E000207B
:100BE80008BD012008BD022008BD00BF08B5D0F827
:100BF800200200F0E5FD10B1022802D003E0002039
:100C080008BD012008BD022008BD00BFD0F8202281
:100C180011F0800F08D001F07F03C3EBC3039B00E2
:100C2800134493F83A00704701F07F01C1EBC1010A
:100C38008900114491F8FA01704700BF08B5D0F84F
:100C4800200200F0BBFC10B1022802D003E0002013
:100C580008BD012008BD022008BD00BF08B5D0F8B6
:100C6800200200F053FD10B1022802D003E000205A
:100C780008BD012008BD022008BD00BF08B5D0F896
:100C8800200200F00DFD10B1022802D003E0002080
:100C980008BD012008BD022008BD00BF08B5D0F876
:100CA800200200F029FD08BD12230B800048704780
:100CB8002000002004230B80004870471C000020FF
:100CC80008B50A4620B90548054902F065FD03E064
:100CD8000248034902F060FD014808BD243D0008B0
:100CE8004408002010B50A46034C0448214602F087
:100CF80053FD204610BD00BF440800203C3D0008BD
:100D080008B50A4620B90548054902F045FD03E043
:100D18000248034902F040FD014808BD503D000863
:100D28004408002008B50A4620B90548054902F0DC
:100D380033FD03E00248034902F02EFD014808BDD7
:100D4800603D00084408002008B50A4620B9054857
:100D5800054902F021FD03E00248034902F01CFDA9
:100D6800014808BD6C3D0008440800200020704779
:100D78000020704710B50146044C204602F076FE6C
:100D8800204602F079FE002010BD00BF300200208E
:100D980010B5064C20460649002202F05FFE2046A8
:100DA800044902F063FE002010BD00BF300200209D
:100DB80044120020440A0020704700BFFEE700BF2D
:100DC800FEE700BFFEE700BFFEE700BF704700BFB9
:100DD800704700BF704700BF08B502F0E1F802F0A5
:100DE8009BF808BD08B5024800F02CF908BD00BF03
:100DF8005404002010B582B000240094214B5A6C92
:100E080042F480425A645A6C02F480420092009A7A
:100E180001941A6C42F080521A641B6C03F08053E0
:100E28000193019B032001F0FFFF6FF00B002146A7
:100E3800224602F00BF86FF00A002146224602F023
:100E480005F86FF009002146224601F0FFFF6FF018
:100E580004002146224601F0F9FF6FF00300214605
:100E6800224601F0F3FF6FF001002146224601F00F
:100E7800EDFF4FF0FF302146224601F0E7FF02B0B8
:100E880010BD00BF003802402DE9F04782B0074688
:100E98000D46D0F80080CB005B1A9B000344DE6C43
:100EA8001A6DB61A1B6C9E4200D91E4606F103093C
:100EB8004FEA99091EE05E1AC5EBC5039B003B4447
:100EC8001B6C9E4200D91E4606F103094FEA990998
:100ED800EC00641BA4003C44616C3B7C00934046DE
:100EE800EAB2B3B200F08EFF636C33446364236DDF
:100EF80033442365424608EB451303F510639B69A9
:100F08009BB24B4509D9EB005B1B9B003B44196D19
:100F1800DB6C994201D2002BCDD13EB90123AB4005
:100F2800D2F8341821EA0303C2F83438002002B09A
:100F3800BDE8F08700286AD0F0B58BB004460323DB
:100F480080F8B933FFF736FD206800F0EBFC254642
:100F580055F8107B6E460FCD0FC60FCD0FC695E81E
:100F6800030086E80300231D0ECB384600F098FCEA
:100F78002068002100F0DCFC002210E0D3009B1A5E
:100F88009B002344012183F8391083F83820DA873D
:100F9800002183F83B1019645964D96401320E2A80
:100FA800ECD9002218E0D3009B1A9B0023440021AF
:100FB80083F8F91183F8F821DA8783F8FB11C3F86D
:100FC8000012C3F80412C3F80C12236802F140009F
:100FD80003EB8003596001320E2AE4D9254655F8FF
:100FE800107B6E460FCD0FC60FCD0FC695E80300D8
:100FF80086E80300231D0ECB384600F0D9FC0123F8
:1010080084F8B933206801F0CBF8002001E0012012
:1010180070470BB0F0BD00BF90F8B833012B0ED06D
:1010280010B50446012380F8B833006801F0ACF825
:10103800206800F071FC002084F8B80310BD02207D
:10104800704700BF2DE9F84F04460668304601F0A6
:10105800E3F8002840F09282206801F0ADF80028FB
:1010680000F08C82206801F0A7F810F0020F04D07D
:101078002268536903F002035361206801F09CF869
:1010880010F4002F5CD0206801F09AF8074600257C
:1010980053E017F0010F4ED05FFA85F920684946F2
:1010A80001F09EF8804610F0010F31D006EB451391
:1010B8000122C3F8082B03F530632269012A12D1F3
:1010C800EA00521B92002244D2F800121B69C3F3B3
:1010D8001203C91AC2F81012D2F80412D2F8003258
:1010E8000B44C2F8043220464946FFF7A1FC2369A5
:1010F800012B0DD165B9C5EBC5039B002344D3F87B
:101108000C322BB92068012104F56F7201F0A4F8A4
:1011180018F0080F07D02046FFF780FC06EB4513B0
:101128000822C3F8082B18F0100F04D006EB45135B
:101138001022C3F8082B01357F08002FA9D100E041
:101148000025206801F038F810F4802F6BD0206853
:1011580001F03EF80746002563E017F0010F5ED066
:101168005FFA85F92068494601F044F8804610F096
:10117800010F2DD0012202FA05F0D6F8343823EAFF
:101188000003C6F8343806EB4513C3F80829236969
:10119800934209D1EB005B1B9B00234403F14002FF
:1011A800596C1B6C0B44536020464946FFF74CFCB6
:1011B8002369012B0CD15DB9C5EBC5039B00234402
:1011C800DB6C2BB92068012104F56F7201F044F83B
:1011D80018F0080F04D006EB45130822C3F80829B5
:1011E80018F0100F04D006EB45131022C3F8082995
:1011F80018F0400F04D006EB45134022C3F8082925
:1012080018F0020F04D006EB45130222C3F8082990
:1012180018F0800F03D020462946FFF735FE013528
:101228007F08002F99D1206800F0C6FF00280DDA4A
:10123800D6F8043823F00103C6F804382046FFF72F
:101248003DFC2268536903F000435361206800F0B5
:10125800B3FF10F4006F0CD0D6F8083813F0010F64
:1012680002D02046FFF712FC2268536903F400639A
:101278005361206800F0A0FF10F4805F4FD037461C
:1012880006F50068D8F8043023F00103C8F80430E4
:101298002068102100F062FB002207E007EB4213F0
:1012A800FF21C3F80819C3F8081B01326368934289
:1012B800F4D84FF0FF33C8F81830D8F81C3043F092
:1012C8000113C8F81C30236B63B1D8F8843043F09D
:1012D8000B03C8F88430D8F8443043F00B03C8F83F
:1012E80044300BE0D8F8143043F00B03C8F814303E
:1012F800D8F8103043F00B03C8F81030D6F800388F
:1013080023F4FE63C6F800382068217C04F56F7268
:1013180000F0A2FF2268536903F4805353612068E8
:1013280000F04AFF10F4005F00F09380206800F09E
:1013380077FF2268D36823F47053D360206800F0E5
:10134800D9FB50B90023E3604FF40073636122684E
:10135800D36843F41053D36073E00323E36040235E
:10136800636101F053FC864B0344864A934205D8D7
:101378002268D36843F47053D36062E0824B03441D
:10138800824A934205D82268D36843F46053D360F5
:1013980057E0A0F57403A3F510537D4A934205D88E
:1013A8002268D36843F45053D3604AE0A0F18373B2
:1013B800A3F5E743774A934205D82268D36843F4F4
:1013C8004053D3603DE0744B0344744A934205D8BC
:1013D8002268D36843F43053D36032E0704B03443F
:1013E800704A934205D82268D36843F42053D360E7
:1013F80027E06D4B03446D4A934205D82268D368B1
:1014080043F41053D3601CE0A0F1B773A3F558530D
:10141800674A934205D82268D36843F40053D360DF
:101428000FE0644B0344644A934205D82268D368AA
:1014380043F4E053D36004E02268D36843F4C05314
:10144800D3602046FFF712FB2268536903F4005368
:101458005361206800F0B0FE10F0100F42D02268EF
:10146800936923F010039361376A07F00F08C7F3F5
:101478004343022B1CD147F6F0731F402DD03F0980
:101488004FEAC809C8EB090A4FEA8A0AA24430465B
:10149800DAF804123A4600F0F5FDDAF804323B4473
:1014A800CAF80432DAF810321F44CAF8107214E08D
:1014B800062B12D1304604F56F71082200F0E2FDC8
:1014C800C7F30A174FEAC803C8EB03029200224485
:1014D800D2F810323B44C2F810322268936943F0C4
:1014E80010039361206800F067FE10F0080F07D022
:1014F8002046FFF7B5FA2268536903F008035361E1
:10150800206800F059FE10F4801F08D02046E9B288
:10151800FFF7E0FA2268536903F4801353612068E7
:1015280000F04AFE10F4001F08D02046E9B2FFF789
:10153800CBFA2268536903F400135361206800F062
:101548003BFE10F0804F07D02046FFF7C9FA22680B
:10155800536903F080435361206800F02DFE10F0BA
:10156800040F0BD023685D6815F0040F02D02046E5
:10157800FFF7BCFA23685A6815435D60BDE8F88F29
:10158800405327FFFF340C00401E1BFF3F420F0053
:101598007F4F12001FD6130060B6E5FE5FE316000A
:1015A80000D3CEFE3F771B00C05BB3FEBF91210086
:1015B8001F753800E05459FEDF9C410090F8B8339D
:1015C800012B0BD010B50446012380F8B83300680E
:1015D80000F0CAFD002084F8B80310BD022070474F
:1015E80038B50546C8B210F0800F07D001F07F0467
:1015F800C4EBC404A40038342C4407E001F07F0491
:10160800C4EBC404A40004F5FC742C4401F07F016D
:101618002170C0096070A260E37000B1E180022B04
:1016280001D10023237195F8B833012B0AD0012387
:1016380085F8B8332868214600F07CFA002085F840
:10164800B80338BD022038BD10B50446CAB212F03E
:10165800800F07D001F07F03C3EBC3039B0038332F
:10166800034407E001F07F03C3EBC3039B0003F5CA
:10167800FC73034401F07F011970D2095A7094F881
:10168800B823012A0AD0012284F8B8232068194611
:1016980000F096FA002084F8B80310BD022010BDAF
:1016A80070B501F07F06F400A51BAD0005F5FC75CB
:1016B8004119A41BA4000444C4F80422C4F80C3241
:1016C8000023C4F8103284F8F93184F8F86103690A
:1016D800012B05D1C6EBC604A4000444C4F80822B3
:1016E80026B90068DAB200F0DFFA03E00068DAB27F
:1016F80000F09CFB002070BD01F00F01C1EBC1019F
:1017080089000844B0F81002704700BF70B501F0B6
:101718007F06F400A51BAD0038354119A41BA400B1
:1017280004446264E36400232365012384F83930A8
:1017380084F838600369012B04D1C6EBC604A40001
:101748000444A26426B90068DAB200F0ADFA03E0F6
:101758000068DAB200F06AFB002070BD38B50446B4
:10176800CAB212F0800F07D001F07F03C3EBC303A6
:101778009B003833034405E0C1EBC1039B0003F52C
:10178800FC7303440120987001F07F051D70D20995
:101798005A7094F8B823824210D084F8B8032068AD
:1017A800194600F085FC2DB92068217C04F56F727C
:1017B80000F052FD002084F8B80338BD022038BD7F
:1017C80010B50446CAB212F0800F07D001F07F03AB
:1017D800C3EBC3039B003833034405E0C1EBC103EB
:1017E8009B0003F5FC7303440020987001F07F010F
:1017F8001970D2095A7094F8B823012A0AD0012224
:1018080084F8B8232068194600F07EFC002084F88C
:10181800B80310BD022010BD30B40468636A19B95A
:1018280043EA0240A06218E00D46A06A03EB1040AC
:10183800002308E003F1400104EB8101496800EB53
:1018480011400133DBB2691E8B42F3DB40EA0240F0
:1018580005F13F0104EB81014860002030BC70476E
:1018680003685962002070470C4B01E0013B10D01F
:101878000269002AFADA036943F001030361074B9E
:1018880001E0013B07D0026912F0010FF9D10020F5
:101898007047032070470320704700BF400D0300C6
:1018A80084B010B5044603A880E80E00089B012BFD
:1018B80018D1A36B23F48033A363E36823F4840370
:1018C80023F04003E360E36823F44013E3600F9BD5
:1018D800012B03D1E36843F48013E3602046FFF74C
:1018E800C3FF09E0E36843F04003E3602046FFF7E5
:1018F800BBFF4FF48033A363069B012B07D1A3687A
:1019080043F00603A360A36843F02003A36000200C
:10191800BDE8104004B07047836843F0010383605A
:1019280000207047836823F001038360002070471C
:1019380008B5C36823F0C043C360012904D1C36854
:1019480043F00053C36004E019B9C36843F080430F
:10195800C360322001F036FB002008BD890141F048
:1019680020010161054B01E0013B05D0026912F03D
:10197800200FF9D10020704703207047400D030065
:1019880010230361054B01E0013B05D0026912F009
:10199800100FF9D10020704703207047400D030055
:1019A800D0F800381943C0F800180020704700BF6D
:1019B80084B0F8B5044607A880E80E00119E26B941
:1019C800A36B43F40013A36303E0A36B43F4002366
:1019D800A3630023C4F8003E04F50065D4F800387A
:1019E800C4F800380C9B012B0BD1099B23B9204666
:1019F8000021FFF7D5FF08E020460121FFF7D0FFBF
:101A080003E020460321FFF7CBFF20461021FFF714
:101A1800A5FF2046FFF7B4FF00232B616B614FF051
:101A2800FF32AA61EB61079848B304F510630022FE
:101A380019461F68002F03DA4FF090471F6001E036
:101A480000271F6000270F61FF278F6001322033B6
:101A58008242EDD304F53063002219461F68002F37
:101A680003DA4FF090471F6001E000271F6000274E
:101A78000F61FF278F60013220338242EDD12B693D
:101A880023F480732B610A9B012B0ED1174B2B6318
:101A98002B6B43F4803343F003032B632B6B00233E
:101AA800A3616FF08043636109E00022A2616FF0D7
:101AB800804262611BB9A36943F01003A361A26964
:101AC8000B4B1343A3610D9B1BB1A36943F00803A0
:101AD800A361012E05D1A36943F0804343F00403B9
:101AE800A3610020BDE8F84004B070470001800001
:101AF80000383C80D0F8083800F5006013F0060F75
:101B080010D0836803F00603022B0DD0836803F01E
:101B18000603062B0AD0836803F00603042B07D1BB
:101B28000220704700207047032070470320704749
:101B38000020704770B44B78012B1FD1D0F81C28B7
:101B48000D78AB409BB21343C0F81C380E78730174
:101B580003F510631A5812F4004F2DD11C5844F0A5
:101B6800805545F400458A68C2F30A042C43CA78B4
:101B780044EA824242EA86521A501DE0D0F81C28F4
:101B88000D784FF48033AB401343C0F81C380B7802
:101B98005B0103F530631A5812F4004F0CD11A5840
:101BA80042F0805444F400448A68C2F30A02224393
:101BB800C97842EA81421A50002070BC704700BFC1
:101BC80038B54B78012B33D10B785B0103F51063E3
:101BD8001A5822F400421A500B785B0103F510637F
:101BE8004FF000621A500B785B0103F510634FF059
:101BF80080421A500C7800EB441404F51064294B09
:101C080001E0013B49D0A26812F0804FF9D10D469E
:101C180004461021FFF7A2FED4F81C2829780123D6
:101C28008B409BB222EA0303C4F81C38002038BD5D
:101C38000B785B0103F53063C25822F40042C250AE
:101C48000B785B0103F530634FF00062C2500B78EC
:101C58005B0103F530634FF08042C2500C7800EB13
:101C6800441404F530640F4B01E0013B17D0A2681F
:101C780012F0100FF9D1D0F8043843F48063C0F89B
:101C88000438D0F81C2809784FF480338B4022EAB6
:101C98000303C0F81C38002038BD032038BD0320DA
:101CA80038BD00BF400D030030B44B78012B69D11B
:101CB8004B69EBB90B7800EB4313D3F8104924F0C8
:101CC800FF5424F4C014C3F810490B7800EB4313F5
:101CD800D3F8104944F40024C3F810490B7800EBFA
:101CE8004313D3F81049E40CE404C3F810492CE07A
:101CF8000B7800EB4313D3F81049E40CE404C3F861
:101D080010490B7800EB4313D3F8104924F0FF5423
:101D180024F4C014C3F810498B684C699C4200D95C
:101D28004B610B7800EB4313D3F8104944F40024BB
:101D3800C3F810490B7800EB4313D3F810594C69DA
:101D4800C4F312042C43C3F810490B785B0103F564
:101D58001063C45844F00444C450012A06D10B78D7
:101D680000EB43100B69C0F8143947E04B69002BAE
:101D780044D0D0F83428097801238B401343C0F8A5
:101D880034383BE00B7800EB4313D3F8104BE40CEA
:101D9800E404C3F8104B0B7800EB4313D3F8104B53
:101DA80024F0FF5424F4C014C3F8104B4B690BB152
:101DB8008B684B610B7800EB4313D3F8104B44F45A
:101DC8000024C3F8104B0B7800EB4313D3F8105BD7
:101DD8008C68C4F312042C43C3F8104B012A05D1B4
:101DE8000B7800EB4313CA68C3F8142B0B785B011C
:101DF80003F53063C25842F00442C250002030BCA0
:101E0800704700BF30B49DF8084064B903339B089D
:101E180009D000F5805000EB023251F8045B1560E0
:101E280001349C42F9D1002030BC704770B582B0B3
:101E38004B78012B40F0A9804B69EBB90B7800EB8C
:101E48004313D3F8104924F0FF5424F4C014C3F802
:101E580010490B7800EB4313D3F8104944F40024DD
:101E6800C3F810490B7800EB4313D3F81049E40C7E
:101E7800E404C3F8104945E00B7800EB4313D3F8AA
:101E88001049E40CE404C3F810490B7800EB431341
:101E9800D3F8104924F0FF5424F4C014C3F81049AF
:101EA8000C7800EB4414D4F810598E684B6933440D
:101EB800013BB3FBF6F3724E06EAC3432B43C4F867
:101EC80010390B7800EB4313D3F810594C69C4F35D
:101ED80012042C43C3F81049CB78012B40F0C8807A
:101EE8000B7800EB4313D3F8104924F0C044C3F82F
:101EF80010490B7800EB4313D3F8104944F0005411
:101F0800C3F81049012A06D10B7800EB43130C697A
:101F1800C3F814490CE0CB78012B0CD04B6903B300
:101F2800D0F834480E780123B3402343C0F834383E
:101F3800CB78012B15D1D0F8083813F4807F08D15D
:101F48000B785B0103F51063C45844F00054C45087
:101F580007E00B785B0103F51063C45844F0805424
:101F6800C4500B785B0103F51063C45844F0044473
:101F7800C450CB78012B7FD114460B46C9681A7818
:101F88009B8A0094FFF73EFF76E00B7800EB431343
:101F9800D3F8104BE40CE404C3F8104B0B7800EBB7
:101FA8004313D3F8104B24F0FF5424F4C014C3F89F
:101FB800104B4B69A3B90B7800EB4313D3F8105BB4
:101FC8008C68C4F312042C43C3F8104B0B7800EB55
:101FD8004313D3F8104B44F40024C3F8104B1DE00E
:101FE8008D680C7800EB4414D4F8106B2B44013B3B
:101FF800B3FBF5F39BB2224D05EAC3453543C4F85C
:10200800105B0C7800EB4414D4F8106B8D6805FB5A
:1020180003F3C3F312033343C4F8103B012A05D179
:102028000B7800EB4313CA68C3F8142BCB78012B49
:1020380015D1D0F8083813F4807F08D10B785B01EC
:1020480003F53063C25842F00052C25007E00B78E3
:102058005B0103F53063C25842F08052C2500B78DE
:102068005B0103F53063C25842F00442C25003E0FA
:10207800012A7FF453AF47E7002002B070BD00BFCC
:102088000000F81F033292080FD030B40C4600232A
:1020980000F580552D6844F8045B01339342F7D16D
:1020A80001EB8201084630BC70470846704700BF04
:1020B8004B78012B13D10B785B0103F51063C258E1
:1020C800002A03DBC25822F08042C2500B785B0121
:1020D80003F51063C25842F40012C25012E00B78A4
:1020E8005B0103F53063C258002A03DBC25822F0B3
:1020F8008042C2500B785B0103F53063C25842F44A
:102108000012C250002070474B78012B15D10B7874
:102118005B0103F51063C25822F40012C250CB7859
:10212800023BDBB2012B1DD80B785B0103F5106372
:10213800C25842F08052C25014E00B785B0103F59C
:102148003063C25822F40012C250CB78023BDBB293
:10215800012B07D80B785B0103F53063C25842F0B6
:102168008052C25000207047D0F8003823F4FE6334
:10217800C0F80038D0F80038090101F4FE610B43BB
:10218800C0F800380020704708B5D0F8043823F0AC
:102198000203C0F80438032000F014FF002008BD33
:1021A80008B5D0F8043843F00203C0F80438032017
:1021B80000F008FF002008BD436980691840704797
:1021C800D0F8183800F50060C0691840000C704756
:1021D80000F50063D0F81808DB69184080B2704732
:1021E80000F5306303EB41118B6800F5006040692E
:1021F8001840704710B4D0F81048D0F8343800EBC5
:102208004110D0F80809CB40DB01DBB2234318406A
:102218005DF8044B704700BF406900F0010070474B
:10222800D0F8003923F4FF6323F00703C0F800391E
:1022380000F500639A6802F00602042A05D1D0F876
:10224800002942F00302C0F800295A6842F480725B
:102258005A600020704700BF10B40024C0F8104B2B
:10226800D0F8104B44F40024C0F8104BD0F8104BB1
:1022780044F01804C0F8104BD0F8104B44F0C04498
:10228800C0F8104B012905D1C0F8142B4FF080235A
:10229800C0F8003B00205DF8044B70472DE9F84377
:1022A80004460268136923F44053C1680B43136161
:1022B8000068C36823F4164323F00C03A16822695D
:1022C800114362691143E2690A431343C3602268F8
:1022D800536923F44073A1690B435361E369B3F570
:1022E800004F40F0B580266803F1804303F51043A2
:1022F8009E4203D003F580639E4254D100F09CFCBB
:1023080000EB800000EB800065686D00B0FBF5F520
:10231800A84FA7FB05356D092D0100F08DFC00EBDA
:10232800800000EB800063685B00B0FBF3F800F00E
:1023380083FC00EB800000EB800063685B00B0FB6F
:10234800F3F3A7FB03235B094FF0640909FB13832D
:10235800DB003233A7FB03231B0903F4F8731D4486
:1023680000F06AFC00EB800000EB800063685B0013
:10237800B0FBF3F800F060FC00EB800000EB80009D
:1023880063685B00B0FBF3F3A7FB03235B0909FB5E
:102398001383DB003233A7FB0323C3F342131D442B
:1023A800B560BDE8F88300F037FC00EB800000EB77
:1023B800800065686D00B0FBF5F57E4FA7FB05351D
:1023C8006D092D0100F028FC00EB800000EB800077
:1023D80063685B00B0FBF3F800F01EFC00EB8000C4
:1023E80000EB800063685B00B0FBF3F3A7FB0323FB
:1023F8005B094FF0640909FB1383DB003233A7FB49
:1024080003231B0903F4F8731D4400F005FC00EBDB
:10241800800000EB800063685B00B0FBF3F800F01D
:10242800FBFB00EB800000EB800063685B00B0FB07
:10243800F3F3A7FB03235B0909FB1383DB003233A8
:10244800A7FB0323C3F342131D44B560BDE8F8831B
:102458002668594B9E4203D003F580639E4254D1AF
:1024680000F0EAFB00EB800000EB80006568AD003F
:10247800B0FBF5F54F4FA7FB05356D092D0100F0B1
:10248800DBFB00EB800000EB800063689B00B0FB87
:10249800F3F800F0D1FB00EB800000EB80006368EC
:1024A8009B00B0FBF3F3A7FB03235B094FF0640920
:1024B80009FB13831B013233A7FB03235B0903F0DA
:1024C800F0031D4400F0B8FB00EB800000EB800037
:1024D80063689B00B0FBF3F800F0AEFB00EB8000F4
:1024E80000EB800063689B00B0FBF3F3A7FB0323BA
:1024F8005B0909FB13831B013233A7FB0323C3F3D7
:1025080043131D44B560BDE8F88300F085FB00EB7C
:10251800800000EB80006568AD00B0FBF5F5254F45
:10252800A7FB05356D092D0100F076FB00EB800057
:1025380000EB800063689B00B0FBF3F800F06CFBD5
:1025480000EB800000EB800063689B00B0FBF3F3B6
:10255800A7FB03235B094FF0640909FB13831B01E5
:102568003233A7FB03235B0903F0F0031D4400F09B
:1025780053FB00EB800000EB800063689B00B0FB1E
:10258800F3F800F049FB00EB800000EB8000636883
:102598009B00B0FBF3F3A7FB03235B0909FB138341
:1025A8001B013233A7FB0323C3F343131D44B56058
:1025B800BDE8F8831F85EB510010014068B310B5E2
:1025C800044690F8393013F0FF0F04D1002380F847
:1025D8003830FEF7A7F9242384F839302268D36805
:1025E80023F40053D3602046FFF758FE226813698E
:1025F80023F4904313612268536923F02A0353613B
:102608002268D36843F40053D3600020E06320239A
:1026180084F8393084F83A3010BD0120704700BF83
:10262800002800F0B58170B582B00446036813F045
:10263800010F5AD0A04B9B6803F00C03042B0AD05F
:102648009D4B9B6803F00C03082B0DD19A4B5B68DC
:1026580013F4800F08D0984B1B6813F4003F44D044
:102668006368002B41D195E16368B3F5803F05D1DC
:10267800914A136843F48033136015E0B3F5A02F33
:1026880009D18D4B1A6842F480221A601A6842F404
:1026980080321A6008E0884B1A6822F480321A6087
:1026A8001A6822F480221A6063687BB100F084FC07
:1026B800054605E000F080FC401B642800F26C81B0
:1026C8007D4B1B6813F4003FF4D00EE000F074FC5F
:1026D800054605E000F070FC401B642800F25E81AE
:1026E800754B1B6813F4003FF4D1236813F0020FF5
:1026F80050D0714B9B6813F00C0F0AD06E4B9B683F
:1027080003F00C03082B16D16B4B5B6813F4800F96
:1027180011D1694B1B6813F0020F03D0E368012B3A
:1027280040F03E81644A136823F0F803216943EAC4
:10273800C10313602EE0E368D3B101225F4B1A6036
:1027480000F03AFC054605E000F036FC401B022884
:1027580000F22881584B1B6813F0020FF4D0564A38
:10276800136823F0F803216943EAC103136011E0F9
:102778000022524B1A6000F01FFC054605E000F0ED
:102788001BFC401B022800F20F814B4B1B6813F007
:10279800020FF4D1236813F0080F26D0636993B1B0
:1027A8000122474B1A6000F007FC054605E000F0DF
:1027B80003FC401B022800F2F9803F4B5B6F13F0CB
:1027C800020FF4D011E000223D4B1A6000F0F4FB38
:1027D800054605E000F0F0FB401B022800F2E88007
:1027E800354B5B6F13F0020FF4D1236813F0040F1D
:1027F8007CD0314B1B6C13F0805F0DD1002301930B
:102808002D4B1A6C42F080521A641B6C03F08053F3
:102818000193019B012500E000252A4B1B6813F456
:10282800807F13D1274A136843F48073136000F044
:10283800C3FB064605E000F0BFFB801B022800F240
:10284800B980204B1B6813F4807FF4D0A368012B58
:1028580005D1194A136F43F00103136714E0052BE0
:1028680009D1154B1A6F42F004021A671A6F42F029
:1028780001021A6708E0104B1A6F22F001021A676A
:102888001A6F22F004021A67A3688BB100F094FB58
:10289800064607E000F090FB801B41F2883398421F
:1028A80000F28A80044B1B6F13F0020FF2D017E07E
:1028B80000F082FB06460EE0003802400000474266
:1028C800800E47420070004000F076FB801B41F20A
:1028D8008833984272D8404B1B6F13F0020FF3D124
:1028E80025B13D4A136C23F080531364A369002B70
:1028F80066D0394A926802F00C02082A62D0022B8C
:1029080033D10022354B1A6000F056FB054604E02F
:1029180000F052FB401B022856D82F4B1B6813F0BF
:10292800007FF5D1E269236A1343626A43EA82139E
:10293800A26A5208013A43EA0243E26A43EA02639E
:10294800254A53600122254B1A6000F035FB0446E6
:1029580004E000F031FB001B022837D81E4B1B682F
:1029680013F0007FF5D0002033E000221B4B1A60E3
:1029780000F022FB044604E000F01EFB001B0228C6
:1029880026D8154B1B6813F0007FF5D1002020E0F6
:102998000120704701201CE003201AE0032018E002
:1029A800012016E0032014E0032012E0032010E0C9
:1029B80003200EE003200CE003200AE0032008E0D7
:1029C800002006E0012004E0032002E0032000E0EC
:1029D800032002B070BD00BF0038024060004742CB
:1029E80038B52F4B9B6803F00C03042B55D0082BEC
:1029F80001D02C4838BD2A4B5A6802F03F025B6868
:102A080013F4800F20D0264B5B68C3F38813DC00D7
:102A18000025690141EAD4616001041B61EB0505E9
:102A2800A90141EA9461A001001B61EB0501C018EE
:102A380041F100014B0243EAD053440220461946B3
:102A48000023FDF7EFFB1FE0154B5B68C3F388130A
:102A5800DC000025690141EAD4616001041B61EBD7
:102A68000505A90141EA9461A001001B61EB05017C
:102A7800C01841F100018B0243EA905384022046BA
:102A880019460023FDF7CEFB054B5B68C3F30143F2
:102A980001335B00B0FBF3F038BD034838BD00BF1D
:102AA800003802400024F40000127A00002800F0E8
:102AB800978070B50D460446504B1B6803F00F0312
:102AC8008B4208D2CBB24D4A1370136803F00F0340
:102AD8008B4240F08780236813F0020F17D013F061
:102AE800040F04D0464A936843F4E0539360236884
:102AF80013F0080F04D0424A936843F4604393608C
:102B08003F498B6823F0F002A36813438B60236866
:102B180013F0010F2FD06268012A05D1384B1B68CA
:102B280013F4003F0ED15FE0931E012B05D8344B00
:102B38001B6813F0007F05D158E0314B1B6813F078
:102B4800020F55D02E498B6823F0030313438B6083
:102B580000F032FA064606E000F02EFA801B41F239
:102B68008833984246D8264B9B6803F00C0362686A
:102B7800B3EB820FF0D1214B1B6803F00F03AB427C
:102B880007D9EAB21D4B1A701B6803F00F03AB425A
:102B980032D1236813F0040F06D019498B6823F447
:102BA800E052E36813438B60236813F0080F07D0E3
:102BB800134A936823F46043216943EAC10393608D
:102BC800FFF70EFF0E4B9B68C3F303130D4AD35C4C
:102BD800D8400D4B1860002000F0A2F9002070BD0D
:102BE80001207047012070BD012070BD012070BD1B
:102BF800012070BD032070BD012070BD003C024063
:102C0800003802407C3D00084C000020014B186849
:102C1800704700BF4C00002008B5FFF7F7FF044BD2
:102C28009B68C3F38223034AD35CD84008BD00BF26
:102C3800003802408C3D000808B5FFF7E7FF044B59
:102C48009B68C3F34233034AD35CD84008BD00BF36
:102C5800003802408C3D00082DE9F04182B0002385
:102C6800D3E09C4601229A400C681440944240F0FC
:102C7800CB804D68022D01D0122D14D14FEAD30814
:102C880008F1080850F8287003F0070E4FEA8E0E76
:102C98000F2505FA0EF527EA05060D6905FA0EF562
:102CA800354340F8285006684FEA430E032505FAD5
:102CB8000EF5ED4305EA06074E6806F0030606FA28
:102CC8000EF63E4306604E68771E012F03D9112E7B
:102CD80001D0122E12D1866805EA0607CE6806FAD8
:102CE8000EF63E438660476827EA02074E68C6F339
:102CF800001202FA0CF646EA07024260C2682A404D
:102D08008D6805FA0EF51543C5604A6812F0805FB4
:102D18007AD000220192404A556C45F480455564AA
:102D2800526C02F480420192019A9A08961C3B4D1B
:102D380055F8266003F00307BF000F25BD4026EABB
:102D48000506374DA8422BD005F58065A84225D049
:102D580005F58065A8421FD005F58065A84219D001
:102D680005F58065A84213D005F58065A8420DD009
:102D780005F58065A84207D005F58065A84201D110
:102D880007250EE008250CE006250AE0052508E0E1
:102D9800042506E0032504E0022502E0012500E001
:102DA8000025BD40354302321C4E46F822501D4ACC
:102DB8001568E24302EA05064F6817F4803F01D020
:102DC80044EA0506174D2E606D6802EA05064F684D
:102DD80017F4003F01D044EA0506124D6E60AD6855
:102DE80002EA05064F6817F4801F01D044EA050679
:102DF8000C4DAE60ED682A404E6816F4001F01D0F5
:102E080044EA0502074CE26001330F2B7FF629AF35
:102E180002B0BDE8F08100BF003802400038014030
:102E280000000240003C014000F00700064AD36859
:102E380023F4E0631B041B0C43EA002040F0BF604E
:102E480040F40030D060704700ED00E030B4164B1D
:102E5800DC68C4F30224C4F10705042D28BF042547
:102E6800231D062B01D9033C00E00024012303FAAB
:102E780005F5013D2940A140A340013B1A400A4302
:102E8800002806DA00F00F001201D2B2074B1A54DC
:102E980007E01201D2B200F1604000F5614080F80D
:102EA800002330BC704700BF00ED00E014ED00E0E7
:102EB800410900F01F0001238340024A42F82130F3
:102EC800704700BF00E100E00138B0F1807F0AD20E
:102ED800064B5860F021064A82F8231000209860BB
:102EE80007221A6070470120704700BF10E000E019
:102EF80000ED00E0042805D1054A136843F00403F7
:102F080013607047024A136823F004031360704784
:102F180010E000E0704700BF08B5FFF7FBFF08BDF1
:102F280010B504460E4B18784FF47A73B3FBF0F3E0
:102F38000C4A1068B0FBF3F0FFF7C6FF58B90F2C26
:102F48000BD84FF0FF3021460022FFF77FFF064BDA
:102F58001C60002010BD012010BD012010BD00BF65
:102F6800480000204C0000204400002008B50B4B0E
:102F78001A6842F400721A601A6842F480621A6091
:102F88001A6842F480721A600320FFF74DFF002090
:102F9800FFF7C6FFFDF72EFF002008BD003C0240EA
:102FA800034A1368034909780B441360704700BF4C
:102FB800441A002048000020014B1868704700BFE1
:102FC800441A002038B50446FFF7F6FF0546B4F169
:102FD800FF3F02D0044B1B781C44FFF7EDFF401B5A
:102FE8008442FAD838BD00BF480000200F49D1F804
:102FF800883043F47003C1F888300D4B1A6842F0EA
:1030080001021A60002098601A6822F0847222F483
:1030180080321A60074A5A601A6822F480221A60BD
:10302800D8604FF000638B60704700BF00ED00E090
:10303800003802401030002498B108B50346D0F893
:10304800140210B10020C3F8140209B1C3F8101219
:10305800012183F8FC111A701846FDF74DFD002078
:1030680008BD0220704700BF19B1C0F81412002033
:1030780070470220704700BF08B5FDF775FD0020B6
:1030880008BD00BF08B5D0F8143223B11B689847B3
:1030980018B1022008BD022008BD002008BD00BFED
:1030A80008B5D0F814325B689847002008BD00BF07
:1030B80038B5044600F50275284600F015F90123D5
:1030C800C4F8F431B4F80E32C4F8F83194F80812A0
:1030D80001F01F03012B08D013B1022B0AD00EE018
:1030E8002046294600F08AFA0EE02046294600F0DC
:1030F800A9FA09E02046294600F0C0FA04E0204673
:1031080001F08001FDF762FD002038BD38B50446A6
:1031180009BBD0F8F431032B26D1D0F80C31D0F804
:1031280010118B420AD95B1AC0F80C318B4228BFA8
:103138000B4611469AB200F075FB15E0D0F8143230
:103148001B6923B190F8FC21032A00D19847204637
:1031580000F072FB08E0D0F814329B6923B190F8B4
:10316800FC21032A00D19847002038BD38B5044611
:10317800002942D1D0F8F431022B36D1C169036A53
:1031880099420CD9CB1AC36111469AB200F030FBB0
:10319800204600210A460B46FDF770FD25E08169AF
:1031A800B1FBF3F203FB121292B98B4210D8D0F89C
:1031B800F83199420CD200210A4600F019FB00238D
:1031C800C4F8F831204619461A46FDF757FD0CE0B9
:1031D800D4F81432DB682BB194F8FC21032A01D10E
:1031E80020469847204600F033FB94F80032012B24
:1031F8000CD1002384F8003208E0D0F814325B695F
:1032080023B190F8FC21032A00D19847002038BD4B
:1032180038B5044600210A464023FDF7B5FC402591
:10322800C4F810512046802100222B46FDF7ACFC43
:103238002562012384F8FC31D4F818322BB1D4F874
:1032480014325B68204621799847002038BD00BFBA
:1032580001740020704700BF90F8FC3180F8FD3100
:10326800042380F8FC310020704700BF90F8FD313E
:1032780080F8FC310020704708B590F8FC31032B2A
:1032880004D1D0F81432DB6903B19847002008BD97
:1032980000207047002070470020704708B50122C1
:1032A80080F8FC21D0F81422526801799047002058
:1032B80008BD00BF0346002002E00130C0B2013360
:1032C8001A78002AF9D170474B88012B0BD110B519
:1032D8000446C0F80432D0F814329B689847204658
:1032E80000F0AAFA10BD70470B7803704B78437052
:1032F8008B78CA7803EB022343800B794A7903EB76
:10330800022383808B79CA7903EB0223C380704739
:1033180010B504468021FDF759FC20460021FDF731
:1033280055FC10BD30B583B004460D464A88130AD3
:10333800013B062B00F28580DFE803F0040D2383B0
:1033480083657300D0F810321B68007C0DF106010C
:103358009847014679E0037C4BB9D0F814329B6A50
:103368000DF1060098470146022343706DE0D0F83E
:103378001432DB6A0DF106009847014602234370B8
:1033880063E0D2B2052A3AD8DFE802F0030C151E32
:103398002730D0F810325B68007C0DF106019847A1
:1033A800014652E0D0F810329B68007C0DF106010E
:1033B8009847014649E0D0F81032DB68007C0DF1EF
:1033C80006019847014640E0D0F810321B69007C9E
:1033D8000DF106019847014637E0D0F810325B69D5
:1033E800007C0DF10601984701462EE0D0F8103216
:1033F8009B69007C0DF106019847014625E02946A6
:10340800FFF786FF2EE0037C3BB9D0F814325B6BE4
:103418000DF106009847014617E02946FFF778FFA7
:1034280020E0037C4BB9D0F814321B6B0DF1060079
:10343800984701460723437007E02946FFF768FFCE
:1034480010E02946FFF764FF0CE0BDF806304BB1E9
:10345800EA883AB19A4228BF1A46ADF806202046B3
:1034680000F0B8F903B030BD38B504468B88E3B92D
:10347800CB88D3B98D7805F07F0590F8FC31032B04
:1034880002D1FFF745FF38BD80F8FE512946FDF708
:10349800D5FB204600F0D0F91DB1022384F8FC3199
:1034A80038BD012384F8FC3138BD2046FFF730FFD2
:1034B80038BD00BF38B504460D468978264B1970CB
:1034C800012903D92946FFF723FF38BD90F8FC31BD
:1034D800022B02D0032B15D039E081B141600323C0
:1034E80080F8FC31FFF7CEFD022804D1204629469A
:1034F800FFF70EFF38BD204600F09EF938BD00F0FA
:103508009BF938BD49B9022380F8FC314160FFF7C7
:10351800C7FD204600F090F938BD4368994213D0A2
:10352800D9B2FFF7BDFD0C4B197861602046FFF753
:10353800A9FD022804D120462946FFF7E9FE38BD37
:10354800204600F079F938BD00F076F938BD2946F3
:10355800FFF7DEFE38BD00BFE001002008B50346D6
:10356800CA88012A02D0FFF7D3FE08BD90F8FC21D3
:10357800022A02D0032A08D00CE00146002241F8B2
:10358800082F012200F026F908BD191D012200F0BC
:1035980021F908BDFFF7BCFE08BD00BF08B503460A
:1035A80090F8FC21023A012A0DD80122C260D0F815
:1035B80004220AB10322C260184603F10C01022258
:1035C80000F008F908BDFFF7A3FE08BD10B50446D2
:1035D80090F8FC31023B012B0DD84B88012B0CD104
:1035E8000023C0F80432D0F814329B68984720466C
:1035F80000F022F910BDFFF78BFE10BD08B54B781F
:10360800092B1BD8DFE803F011171A141A08051A3A
:103618000E0BFFF787FE13E0FFF726FF10E0FFF71A
:1036280049FF0DE0FFF79AFF0AE0FFF7B7FF07E051
:10363800FFF74AFE04E0FFF7C9FF01E0FFF768FE65
:10364800002008BD38B504460D4690F8FC31032B20
:103658000FD10B79012B09D8D0F814329B68984701
:10366800EB8843B9204600F0E7F804E0FFF750FE86
:1036780001E0FFF74DFE002038BD00BF38B5054614
:103688000C468A88D1B2237803F06003202B05D139
:10369800D0F814329B68214698477BE06378012B69
:1036A80026D0002B48D0032B74D190F8FC31022B84
:1036B80002D0032B07D017E000296BD0802969D0EE
:1036C800FDF784FA66E0638823B919B1802901D02F
:1036D800FDF77CFAD5F814329B68284621469847AE
:1036E800284600F0A9F855E02146FFF711FE51E001
:1036F80090F8FC31022B02D0032B07D018E00029E8
:1037080048D0802946D0FDF761FA43E06388002B52
:1037180040D111F07F0F07D0FDF768FAD5F81432C1
:103728009B68284621469847284600F085F831E0EE
:103738002146FFF7EDFD2DE090F8FC31022B02D079
:10374800032B06D023E011F07F0F23D0FDF73EFABC
:1037580020E012F0800F05D001F07F0400EB041484
:10376800143405E001F07F0400EB041404F58274BE
:103778002846FDF74BFA10B10123236001E000232E
:10378800236028462146022200F024F802E0214660
:10379800FFF7BEFD002038BDD0B170B50D46164606
:1037A8000446FFF787FD0130400080B23080287062
:1037B80003236B70022307E05A1CD2B20134E95488
:1037C800531CDBB20021A95421780029F4D170BD23
:1037D800704700BF38B50D4613460222C0F8F421E1
:1037E8008361C36100212A46FDF738FA002038BDFD
:1037F80010B50C46134600212246FDF72FFA00208B
:1038080010BD00BF38B50D4613460322C0F8F42199
:10381800C0F80831C0F80C3100212A46FDF72EFA0D
:10382800002038BD10B50C46134600212246FDF78E
:1038380025FA002010BD00BF08B50423C0F8F431F4
:1038480000210A460B46FDF709FA002008BD00BF13
:1038580008B50523C0F8F43100210A460B46FDF7E8
:103868000DFA002008BD00BFD0F818321BB10020A7
:10387800C3F8140270470220704700BF10B5D0F893
:103888001842D0F81C325BB194F80002FF2807D028
:103898009B68214694F801229847FF2384F8003258
:1038A800002010BD432303800048704750000020CB
:1038B80043230380004870471C01002043230380F2
:1038C80000487047D80000200A230380004870474A
:1038D800CC00002038B50446D0F81852FDF7DEF9C0
:1038E800C5F80C02D4F818324BB1D4F81C32DB6896
:1038F800D5F8040205F503719847002038BD022069
:1039080038BD00BF70B505460C46D0F818620B7874
:1039180013F0600224D0202A29D1CA88CAB113F032
:10392800800F0BD0D0F81C329B68487831469847F6
:1039380028463146E288FFF74DFF18E04B7886F8B5
:103948000032CB8886F801323146E288FFF75AFF09
:103958000DE0D0F81C329B6848780022984706E0B2
:103968004B780A2B03D103490122FFF733FF0020CC
:1039780070BD00BFE101002010B504468121FDF7AC
:1039880015F920460121FDF711F920468221FDF79E
:103998000DF9D4F8183253B1D4F81C325B68984743
:1039A800D4F8180200F0DAF80023C4F8183200201E
:1039B80010BD00BF38B50446037C6BB981210222D3
:1039C8004FF40073FDF7E0F82046012102224FF47E
:1039D8000073FDF7D9F80AE0812102224023FDF7A0
:1039E800D3F82046012102224023FDF7CDF82046D6
:1039F800822103220823FDF7C7F84FF4077000F06F
:103A0800A5F80546C4F81802E8B1D4F81C321B68BA
:103A180098470023C5F81432C5F81832237C4BB9EF
:103A280020460121D5F804224FF40073FDF726F94A
:103A3800002038BD20460121D5F804224023FDF797
:103A48001DF9002038BD012038BD00BF19B1C0F8EC
:103A58001C12002070470220704700BFD0F81832AF
:103A6800C3F80812C3F8102200207047D0F81832A3
:103A7800C3F804120020704708B5D0F8183293B183
:103A8800027C42B90121D3F804224FF40073FDF7F8
:103A9800F5F8002008BD0121D3F804224023FDF7E2
:103AA800EDF8002008BD022008BD00BFDFF834D0C3
:103AB800002103E00C4B5B58435004310B480C4B7E
:103AC80042189A42F6D30B4A02E0002342F8043B1C
:103AD800094B9A42F9D3FFF789FA00F011F8FCF77D
:103AE800D1FE704700000220A83D00080000002019
:103AF800C4010020C40100204C1A0020FEE7000089
:103B080070B50E4B0E4CE41AA41000251E46A542B3
:103B180004D056F8253098470135F8E700F0DEF86C
:103B2800084C094BE41AA41000251E46A54204D0EF
:103B380056F8253098470135F8E770BDA03D0008D4
:103B4800A03D0008A43D0008A03D0008024B014626
:103B5800186800F04FB800BFC0010020024B0146B2
:103B6800186800F003B800BFC001002030B5002974
:103B78003DD051F8042C0B1F1D49002AB8BF9B18D3
:103B88000A680C4612B95A600B6030BD93420DD2D8
:103B980019685818904201BF5A5852181A6042685A
:103BA8005A60236030BD994203D80A4651680029FB
:103BB800F9D1146815199D420AD11B682344D018FD
:103BC8008842136013D10868034413604B680DE002
:103BD80002D90C23036030BD1C681819884204BF41
:103BE80008684968596004BF00191860536030BDFF
:103BF800E801002070B5CC1C24F0030408340C2C18
:103C080038BF0C24002C064603DA0C23336000204E
:103C180070BD8C42F9D3204A136810461946A1B1E9
:103C28000A68121B0ED40B2A03D90A608B188C5011
:103C38001FE08B420DBF5A684A685A60026018BF7D
:103C48000B4616E00B464968E9E7144D2B681BB98B
:103C5800304600F025F828603046214600F020F86C
:103C6800421C0346D1D0C51C25F0030585420AD164
:103C78001C6003F10B001A1D20F00700821A0AD0FD
:103C88005142995070BD3046E91A00F009F80130E8
:103C9800BBD02B46ECE770BDE8010020E401002012
:103CA80038B5064C002305460846236000F008F89E
:103CB800431C02D1236803B12B6038BD481A002089
:103CC800044A05491368002B08BF0B4618441060C6
:103CD80018467047EC010020501A0020F8B500BFC4
:103CE800F8BC08BC9E467047F8B500BFF8BC08BCD5
:043CF8009E4670472D
:103CFC005372632F6D61696E2E6300005372632FD4
:103D0C0075736172742E63005372632F75736264E2
:103D1C005F636F6E662E630053544D3332205669C9
:103D2C00727475616C20436F6D506F72740000007B
:103D3C0053544D6963726F656C656374726F6E6911
:103D4C00637300003030303030303030303031413F
:103D5C000000000043444320436F6E666967000017
:103D6C0043444320496E74657266616365000000CC
:103D7C00000000000000000001020304060708090F
:0C3D8C00000000000102030443000000DE
:083D980028C5FF7F01000000B7
:043DA000F501000821
:043DA400CD01000845
:103DA800B10C0008BD0C0008ED0C0008C90C000897
:103DB800090D00082D0D0008510D00080403090421
:103DC800120100020202004083044057000201026F
:103DD80003010000990D0008750D0008790D000811
:103DE8007D0D000810000000010000000024F40010
:103DF80009024300020100C0320904000001020266
:103E08000100052400100105240100010424020218
:103E180005240600010705820308001009040100B3
:103E2800020A0000000705010240000007058102A0
:103E380040000000BD390008813900080D3900082C
:103E4800000000008538000871380008DD380008D7
:103E5800000000000000000000000000B938000861
:103E6800AD380008C5380008D13800080A06000235
:103E7800000000400100000009074300020104C0DF
:103E880032090400000102020100052400100105A6
:103E9800240100010424020205240600010705820A
:103EA800030800FF09040100020A000000070501D9
:103EB800024000000705810240000000090243009B
:103EC800020100C0320904000001020201000524B9
:103ED8000010010524010001042402020524060043
:103EE800010705820308001009040100020A000006
:103EF8000007050102000200070581020002000018
:103F080000000000000000000000000000000000A9
:103F18000000000000000000000000000000000099
:103F2800943D0008000000000000000000000000B0
:103F38000000000000000000000000000000000079
:103F48000000000000000000000000000000000069
:103F58000000000000000000000000000000000059
:043F680060010020D4
:0400000508003AB500
:00000001FF
